{
  "_format": "hh-sol-artifact-1",
  "contractName": "BillMyCryptoDapp",
  "sourceName": "contracts/BillMyCryptoDapp.sol",
  "abi": [
    {
      "inputs": [
        {
          "internalType": "address",
          "name": "_platformWallet",
          "type": "address"
        }
      ],
      "stateMutability": "nonpayable",
      "type": "constructor"
    },
    {
      "anonymous": false,
      "inputs": [
        {
          "indexed": true,
          "internalType": "address",
          "name": "sender",
          "type": "address"
        },
        {
          "indexed": true,
          "internalType": "bytes32",
          "name": "txHash",
          "type": "bytes32"
        },
        {
          "indexed": false,
          "internalType": "string",
          "name": "billerBankName",
          "type": "string"
        },
        {
          "indexed": false,
          "internalType": "string",
          "name": "billerAccountName",
          "type": "string"
        },
        {
          "indexed": false,
          "internalType": "string",
          "name": "billerAccountNumber",
          "type": "string"
        },
        {
          "indexed": false,
          "internalType": "uint256",
          "name": "amountInNgn",
          "type": "uint256"
        },
        {
          "indexed": false,
          "internalType": "string",
          "name": "senderName",
          "type": "string"
        }
      ],
      "name": "BillerSettled",
      "type": "event"
    },
    {
      "anonymous": false,
      "inputs": [
        {
          "indexed": true,
          "internalType": "address",
          "name": "sender",
          "type": "address"
        },
        {
          "indexed": true,
          "internalType": "address",
          "name": "token",
          "type": "address"
        },
        {
          "indexed": false,
          "internalType": "uint256",
          "name": "amount",
          "type": "uint256"
        },
        {
          "indexed": false,
          "internalType": "address",
          "name": "recipient",
          "type": "address"
        },
        {
          "indexed": true,
          "internalType": "bytes32",
          "name": "txHash",
          "type": "bytes32"
        }
      ],
      "name": "GeneralPaymentProcessed",
      "type": "event"
    },
    {
      "anonymous": false,
      "inputs": [
        {
          "indexed": true,
          "internalType": "address",
          "name": "previousOwner",
          "type": "address"
        },
        {
          "indexed": true,
          "internalType": "address",
          "name": "newOwner",
          "type": "address"
        }
      ],
      "name": "OwnershipTransferred",
      "type": "event"
    },
    {
      "anonymous": false,
      "inputs": [
        {
          "indexed": true,
          "internalType": "address",
          "name": "sender",
          "type": "address"
        },
        {
          "indexed": true,
          "internalType": "address",
          "name": "token",
          "type": "address"
        },
        {
          "indexed": false,
          "internalType": "uint256",
          "name": "amount",
          "type": "uint256"
        },
        {
          "indexed": false,
          "internalType": "uint256",
          "name": "baseAmount",
          "type": "uint256"
        },
        {
          "indexed": false,
          "internalType": "uint256",
          "name": "fee",
          "type": "uint256"
        },
        {
          "indexed": false,
          "internalType": "string",
          "name": "billerBankName",
          "type": "string"
        },
        {
          "indexed": false,
          "internalType": "string",
          "name": "billerAccountName",
          "type": "string"
        },
        {
          "indexed": false,
          "internalType": "string",
          "name": "billerAccountNumber",
          "type": "string"
        },
        {
          "indexed": false,
          "internalType": "uint256",
          "name": "amountInNgn",
          "type": "uint256"
        },
        {
          "indexed": false,
          "internalType": "string",
          "name": "senderName",
          "type": "string"
        },
        {
          "indexed": true,
          "internalType": "bytes32",
          "name": "txHash",
          "type": "bytes32"
        }
      ],
      "name": "PaymentProcessed",
      "type": "event"
    },
    {
      "anonymous": false,
      "inputs": [
        {
          "indexed": false,
          "internalType": "uint256",
          "name": "newFeePercent",
          "type": "uint256"
        }
      ],
      "name": "PlatformFeeUpdated",
      "type": "event"
    },
    {
      "anonymous": false,
      "inputs": [
        {
          "indexed": true,
          "internalType": "address",
          "name": "newPlatformWallet",
          "type": "address"
        }
      ],
      "name": "PlatformWalletUpdated",
      "type": "event"
    },
    {
      "anonymous": false,
      "inputs": [
        {
          "indexed": true,
          "internalType": "address",
          "name": "token",
          "type": "address"
        },
        {
          "indexed": false,
          "internalType": "bool",
          "name": "status",
          "type": "bool"
        }
      ],
      "name": "TokenApproved",
      "type": "event"
    },
    {
      "inputs": [
        {
          "internalType": "address",
          "name": "_token",
          "type": "address"
        },
        {
          "internalType": "bool",
          "name": "_status",
          "type": "bool"
        }
      ],
      "name": "approveToken",
      "outputs": [],
      "stateMutability": "nonpayable",
      "type": "function"
    },
    {
      "inputs": [],
      "name": "owner",
      "outputs": [
        {
          "internalType": "address",
          "name": "",
          "type": "address"
        }
      ],
      "stateMutability": "view",
      "type": "function"
    },
    {
      "inputs": [],
      "name": "platformFeePercent",
      "outputs": [
        {
          "internalType": "uint256",
          "name": "",
          "type": "uint256"
        }
      ],
      "stateMutability": "view",
      "type": "function"
    },
    {
      "inputs": [],
      "name": "platformWallet",
      "outputs": [
        {
          "internalType": "address",
          "name": "",
          "type": "address"
        }
      ],
      "stateMutability": "view",
      "type": "function"
    },
    {
      "inputs": [
        {
          "internalType": "address",
          "name": "_token",
          "type": "address"
        },
        {
          "internalType": "uint256",
          "name": "_amount",
          "type": "uint256"
        },
        {
          "internalType": "address",
          "name": "_recipient",
          "type": "address"
        }
      ],
      "name": "processGeneralPayment",
      "outputs": [],
      "stateMutability": "nonpayable",
      "type": "function"
    },
    {
      "inputs": [
        {
          "internalType": "address",
          "name": "_token",
          "type": "address"
        },
        {
          "internalType": "uint256",
          "name": "_baseAmount",
          "type": "uint256"
        },
        {
          "internalType": "string",
          "name": "_billerBankName",
          "type": "string"
        },
        {
          "internalType": "string",
          "name": "_billerAccountName",
          "type": "string"
        },
        {
          "internalType": "string",
          "name": "_billerAccountNumber",
          "type": "string"
        },
        {
          "internalType": "uint256",
          "name": "_amountInNgn",
          "type": "uint256"
        },
        {
          "internalType": "string",
          "name": "_senderName",
          "type": "string"
        }
      ],
      "name": "processPayment",
      "outputs": [],
      "stateMutability": "nonpayable",
      "type": "function"
    },
    {
      "inputs": [],
      "name": "renounceOwnership",
      "outputs": [],
      "stateMutability": "nonpayable",
      "type": "function"
    },
    {
      "inputs": [
        {
          "internalType": "address",
          "name": "_sender",
          "type": "address"
        },
        {
          "internalType": "bytes32",
          "name": "_txHash",
          "type": "bytes32"
        },
        {
          "internalType": "string",
          "name": "_billerBankName",
          "type": "string"
        },
        {
          "internalType": "string",
          "name": "_billerAccountName",
          "type": "string"
        },
        {
          "internalType": "string",
          "name": "_billerAccountNumber",
          "type": "string"
        },
        {
          "internalType": "uint256",
          "name": "_amountInNgn",
          "type": "uint256"
        },
        {
          "internalType": "string",
          "name": "_senderName",
          "type": "string"
        }
      ],
      "name": "settleBiller",
      "outputs": [],
      "stateMutability": "nonpayable",
      "type": "function"
    },
    {
      "inputs": [
        {
          "internalType": "bytes32",
          "name": "",
          "type": "bytes32"
        }
      ],
      "name": "settledTransactions",
      "outputs": [
        {
          "internalType": "bool",
          "name": "",
          "type": "bool"
        }
      ],
      "stateMutability": "view",
      "type": "function"
    },
    {
      "inputs": [
        {
          "internalType": "address",
          "name": "",
          "type": "address"
        }
      ],
      "name": "supportedTokens",
      "outputs": [
        {
          "internalType": "bool",
          "name": "",
          "type": "bool"
        }
      ],
      "stateMutability": "view",
      "type": "function"
    },
    {
      "inputs": [
        {
          "internalType": "address",
          "name": "newOwner",
          "type": "address"
        }
      ],
      "name": "transferOwnership",
      "outputs": [],
      "stateMutability": "nonpayable",
      "type": "function"
    },
    {
      "inputs": [
        {
          "internalType": "uint256",
          "name": "_newFeePercent",
          "type": "uint256"
        }
      ],
      "name": "updatePlatformFee",
      "outputs": [],
      "stateMutability": "nonpayable",
      "type": "function"
    },
    {
      "inputs": [
        {
          "internalType": "address",
          "name": "_newPlatformWallet",
          "type": "address"
        }
      ],
      "name": "updatePlatformWallet",
      "outputs": [],
      "stateMutability": "nonpayable",
      "type": "function"
    }
  ],
  "bytecode": "0x60806040526002805534801561001457600080fd5b506040516112423803806112428339810160408190526100339161010b565b61003c336100bb565b6001600160a01b0381166100965760405162461bcd60e51b815260206004820152601760248201527f496e76616c696420706c6174666f726d2077616c6c6574000000000000000000604482015260640160405180910390fd5b600180546001600160a01b0319166001600160a01b039290921691909117905561013b565b600080546001600160a01b038381166001600160a01b0319831681178455604051919092169283917f8be0079c531659141344cd1fd0a4f28419497f9722a3daafe3b4186f6b6457e09190a35050565b60006020828403121561011d57600080fd5b81516001600160a01b038116811461013457600080fd5b9392505050565b6110f88061014a6000396000f3fe608060405234801561001057600080fd5b50600436106100cf5760003560e01c80638c639a851161008c578063ad51698a11610066578063ad51698a146101b1578063ada4ef30146101d4578063f2fde38b146101e7578063fa2af9da146101fa57600080fd5b80638c639a85146101625780638da5cb5b14610179578063aa0b59881461019e57600080fd5b806306cb71fc146100d45780630c0e0cef146100e957806368c4ac26146100fc578063715018a614610134578063723242f61461013c5780637794ea6e1461014f575b600080fd5b6100e76100e2366004610cf1565b61020d565b005b6100e76100f7366004610de3565b6102e8565b61011f61010a366004610e1a565b60036020526000908152604090205460ff1681565b60405190151581526020015b60405180910390f35b6100e761039d565b6100e761014a366004610cf1565b6103b1565b6100e761015d366004610e35565b610630565b61016b60025481565b60405190815260200161012b565b6000546001600160a01b03165b6040516001600160a01b03909116815260200161012b565b6100e76101ac366004610e71565b61089c565b61011f6101bf366004610e71565b60046020526000908152604090205460ff1681565b6100e76101e2366004610e1a565b61091f565b6100e76101f5366004610e1a565b6109c0565b600154610186906001600160a01b031681565b610215610a39565b60008681526004602052604090205460ff16156102795760405162461bcd60e51b815260206004820152601b60248201527f5472616e73616374696f6e20616c726561647920736574746c6564000000000060448201526064015b60405180910390fd5b60008681526004602052604090819020805460ff191660011790555186906001600160a01b038916907f7d7d8679d17d1d4789f78cde20098b9a6511c63ca963083eb479cdd766661a3f906102d79089908990899089908990610eda565b60405180910390a350505050505050565b6102f0610a39565b6001600160a01b03821661033e5760405162461bcd60e51b8152602060048201526015602482015274496e76616c696420746f6b656e206164647265737360581b6044820152606401610270565b6001600160a01b038216600081815260036020908152604091829020805460ff191685151590811790915591519182527f54aee4f020b814c26f556399a354577e068193a82445e919505b00b9848512a5910160405180910390a25050565b6103a5610a39565b6103af6000610a93565b565b6001600160a01b03871660009081526003602052604090205460ff1661040f5760405162461bcd60e51b8152602060048201526013602482015272151bdad95b881b9bdd081cdd5c1c1bdc9d1959606a1b6044820152606401610270565b600086116104505760405162461bcd60e51b815260206004820152600e60248201526d125b9d985b1a5908185b5bdd5b9d60921b6044820152606401610270565b6001546001600160a01b03166104a85760405162461bcd60e51b815260206004820152601760248201527f506c6174666f726d2077616c6c6574206e6f74207365740000000000000000006044820152606401610270565b60006104ba8760025460646001610ae3565b905060006104c88289610f39565b6001546040516323b872dd60e01b81523360048201526001600160a01b039182166024820152604481018390529192508a91908216906323b872dd906064016020604051808303816000875af1158015610526573d6000803e3d6000fd5b505050506040513d601f19601f8201168201806040525081019061054a9190610f60565b61058e5760405162461bcd60e51b8152602060048201526015602482015274151bdad95b881d1c985b9cd9995c8819985a5b1959605a1b6044820152606401610270565b6000338b8b888c8c8c8b426040516020016105b199989796959493929190610f7d565b604051602081830303815290604052805190602001209050808b6001600160a01b0316336001600160a01b03167fb28c253f0c48515abbec82fd3cdec13d87652d041ef292e6c71a47e9468ad406868e898f8f8f8f8f60405161061b989796959493929190611020565b60405180910390a45050505050505050505050565b6001600160a01b03831660009081526003602052604090205460ff1661068e5760405162461bcd60e51b8152602060048201526013602482015272151bdad95b881b9bdd081cdd5c1c1bdc9d1959606a1b6044820152606401610270565b600082116106cf5760405162461bcd60e51b815260206004820152600e60248201526d125b9d985b1a5908185b5bdd5b9d60921b6044820152606401610270565b6001600160a01b0381166107195760405162461bcd60e51b8152602060048201526011602482015270125b9d985b1a59081c9958da5c1a595b9d607a1b6044820152606401610270565b6040516323b872dd60e01b81523360048201526001600160a01b038281166024830152604482018490528491908216906323b872dd906064016020604051808303816000875af1158015610771573d6000803e3d6000fd5b505050506040513d601f19601f820116820180604052508101906107959190610f60565b6107d95760405162461bcd60e51b8152602060048201526015602482015274151bdad95b881d1c985b9cd9995c8819985a5b1959605a1b6044820152606401610270565b6040516bffffffffffffffffffffffff1933606090811b8216602084015286811b821660348401526048830186905284901b16606882015242607c820152600090609c0160405160208183030381529060405280519060200120905080856001600160a01b0316336001600160a01b03167fd586b722af1e298ec8c9badbe8225114d0d527d713e32c40fd61de487d0f7b67878760405161088d9291909182526001600160a01b0316602082015260400190565b60405180910390a45050505050565b6108a4610a39565b60058111156108e45760405162461bcd60e51b815260206004820152600c60248201526b08ccaca40e8dede40d0d2ced60a31b6044820152606401610270565b60028190556040518181527f45610d581145924dd7090a5017e5f2b1d6f42213bb2e95707ff86846bbfcb1ca9060200160405180910390a150565b610927610a39565b6001600160a01b0381166109765760405162461bcd60e51b8152602060048201526016602482015275496e76616c69642077616c6c6574206164647265737360501b6044820152606401610270565b600180546001600160a01b0319166001600160a01b0383169081179091556040517f73238e3ae0a71b401b31ae67204506d074de41bd5c084082fba9b64b1c7fa28f90600090a250565b6109c8610a39565b6001600160a01b038116610a2d5760405162461bcd60e51b815260206004820152602660248201527f4f776e61626c653a206e6577206f776e657220697320746865207a65726f206160448201526564647265737360d01b6064820152608401610270565b610a3681610a93565b50565b6000546001600160a01b031633146103af5760405162461bcd60e51b815260206004820181905260248201527f4f776e61626c653a2063616c6c6572206973206e6f7420746865206f776e65726044820152606401610270565b600080546001600160a01b038381166001600160a01b0319831681178455604051919092169283917f8be0079c531659141344cd1fd0a4f28419497f9722a3daafe3b4186f6b6457e09190a35050565b600080610af1868686610b40565b90506001836002811115610b0757610b07611096565b148015610b24575060008480610b1f57610b1f6110ac565b868809115b15610b3757610b34600182610f39565b90505b95945050505050565b6000808060001985870985870292508281108382030391505080600003610b7a57838281610b7057610b706110ac565b0492505050610c29565b808411610bc15760405162461bcd60e51b81526020600482015260156024820152744d6174683a206d756c446976206f766572666c6f7760581b6044820152606401610270565b600084868809851960019081018716968790049682860381900495909211909303600082900391909104909201919091029190911760038402600290811880860282030280860282030280860282030280860282030280860282030280860290910302029150505b9392505050565b80356001600160a01b0381168114610c4757600080fd5b919050565b634e487b7160e01b600052604160045260246000fd5b600082601f830112610c7357600080fd5b813567ffffffffffffffff811115610c8d57610c8d610c4c565b604051601f8201601f19908116603f0116810167ffffffffffffffff81118282101715610cbc57610cbc610c4c565b604052818152838201602001851015610cd457600080fd5b816020850160208301376000918101602001919091529392505050565b600080600080600080600060e0888a031215610d0c57600080fd5b610d1588610c30565b965060208801359550604088013567ffffffffffffffff811115610d3857600080fd5b610d448a828b01610c62565b955050606088013567ffffffffffffffff811115610d6157600080fd5b610d6d8a828b01610c62565b945050608088013567ffffffffffffffff811115610d8a57600080fd5b610d968a828b01610c62565b93505060a0880135915060c088013567ffffffffffffffff811115610dba57600080fd5b610dc68a828b01610c62565b91505092959891949750929550565b8015158114610a3657600080fd5b60008060408385031215610df657600080fd5b610dff83610c30565b91506020830135610e0f81610dd5565b809150509250929050565b600060208284031215610e2c57600080fd5b610c2982610c30565b600080600060608486031215610e4a57600080fd5b610e5384610c30565b925060208401359150610e6860408501610c30565b90509250925092565b600060208284031215610e8357600080fd5b5035919050565b60005b83811015610ea5578181015183820152602001610e8d565b50506000910152565b60008151808452610ec6816020860160208601610e8a565b601f01601f19169290920160200192915050565b60a081526000610eed60a0830188610eae565b8281036020840152610eff8188610eae565b90508281036040840152610f138187610eae565b90508460608401528281036080840152610f2d8185610eae565b98975050505050505050565b80820180821115610f5a57634e487b7160e01b600052601160045260246000fd5b92915050565b600060208284031215610f7257600080fd5b8151610c2981610dd5565b6bffffffffffffffffffffffff198a60601b1681526bffffffffffffffffffffffff198960601b16601482015287602882015286604882015260008651610fcb816068850160208b01610e8a565b865190830190610fe2816068840160208b01610e8a565b8651910160680190610ff8818360208a01610e8a565b855191019061100b818360208901610e8a565b01928352505060200198975050505050505050565b88815287602082015286604082015261010060608201526000611047610100830188610eae565b82810360808401526110598188610eae565b905082810360a084015261106d8187610eae565b90508460c084015282810360e08401526110878185610eae565b9b9a5050505050505050505050565b634e487b7160e01b600052602160045260246000fd5b634e487b7160e01b600052601260045260246000fdfea264697066735822122052c5f10f8446ce51bd4add848967c6c31f58961a522ab84839de9d8c0344f08a64736f6c634300081c0033",
  "linkReferences": {},
  "deployedLinkReferences": {}
}